:020000040800F2
:100000005804002045010008BB0E0008AF0D000891
:10001000B90E0008A5010008A310000800000000A8
:10002000000000000000000000000000DF0E0008DB
:10003000A701000800000000DD0E0008E10E000826
:100040005F0100085F0100085F0100085F01000810
:100050005F0100085F0100085F0100085F01000800
:100060005F0100085F0100085F0100085F010008F0
:100070005F0100085F0100085F0100085F010008E0
:100080005F0100085F0100085F0100085F010008D0
:100090005F0100085F0100085F0100085F010008C0
:1000A0005F0100085F0100085F0100085F010008B0
:1000B0005F010008A10F00085F0100085F01000850
:1000C0005F0100085F0100085F0100085F01000890
:1000D0005F0100085F0100085F0100085F01000880
:1000E0005F0100085F0100085F0100085F01000870
:1000F0005F0100085F0100085F0100085F01000860
:100100005F0100085F0100085F0100085F0100084F
:100110005F0100085F0100085F0100085F0100083F
:100120005F0100085F0100085F0100085F0100082F
:10013000DFF80CD000F018F800480047C5100008A0
:10014000580400200648804706480047FEE7FEE7BF
:10015000FEE7FEE7FEE7FEE7FEE7FEE7FEE7FEE777
:10016000590F000831010008064C074D06E0E06811
:1001700040F0010394E8070098471034AC42F6D3EE
:10018000FFF7DAFFF4100008141100080349044ACD
:1001900031F8101052F8200000F0FAB8E010000812
:1001A00000000020FEE770472DE9F84FDFF8B8A106
:1001B00000220AF1040B144601274FF00F090BF13E
:1001C000040E00BF0B6807FA04F52B40AB4274D154
:1001D000DFF898C14E68A6EB0C0866452BD00DDC05
:1001E000032E34D005DC36B3012E19D0022E2FD1C8
:1001F0001BE0112E16D0122E2AD119E0B8F5881F57
:1002000019D006DCB8F5803F15D0B8F5801F1FD196
:1002100011E0B8F5001F0ED0B8F5041F18D10AE0A0
:10022000CA6815E0CA68121D12E0CA6808320FE0F9
:10023000CA680C320CE08A682AB1012A4FF0080221
:1002400003D0456104E0042202E0056100E00022E1
:10025000FF2B01D8064601E000F104064FEA8405B1
:1002600001D9A5F12005D6F800C009FA05F82CEA55
:10027000080C02FA05F54CEA050CC6F800C04D68FA
:10028000ED006AD53A4DAE6946F00106AE61AD6942
:1002900024F0030605F001050095364D06EB050C2C
:1002A000DCF80850A6074FEA167809FA08F6B543B5
:1002B000314EB04202D100261AE04EE02F4EB0423D
:1002C00001D1012614E02E4EB04201D102260FE0EA
:1002D0002C4EB04201D103260AE02B4EB04201D190
:1002E000042605E0294EB04201D1052600E006268D
:1002F00006FA08F62E43CCF808604D68DAF800607C
:10030000ED03554601D51E4300E09E432E604D6827
:10031000AD0305D5DBF800601E43CBF8006004E0B8
:10032000DBF800509D43CBF800504D68DEF80060CC
:10033000ED02754601D51E4300E09E432E604D68D8
:10034000AD0205D5084D0C352E681E432E6004E025
:10035000054E0C3635689D433560641C102CFFF447
:1003600031AFBDE8F88F000000040140000011101B
:10037000001002400000014000080140000C014054
:10038000001001400014014000180140001C014011
:10039000C2684A40C26070470AB1016170470904EF
:1003A000FBE700000148806870470000080000205B
:1003B000024881680278114481607047080000207B
:1003C000074810B5016841F010010160032000F0FA
:1003D0009DF8002000F006F800F024F8002010BD81
:1003E0000020024070B50D4D04464FF47A71287814
:1003F000B1FBF0F00A490968B1FBF0F000F00DFB29
:1004000048B9102C07D200222146501E00F05EF899
:1004100000206C6070BD012070BD0000080000204D
:1004200014000020214808B5816941F00101816173
:10043000816901F001010091C16941F08051C16100
:10044000C06900F080500090032000F05FF80022A7
:1004500011466FF00B0000F039F8002211466FF0E2
:100460000A0000F033F8002211466FF0090000F096
:100470002DF800221146501F00F028F800221146E6
:10048000101F00F023F800221146901E00F01EF805
:1004900000221146501E00F019F80548416821F06D
:1004A000E06141F08061416008BD00000010024041
:1004B0000000014000F01F0201219140400980002E
:1004C00000F1E020C0F8001170470000F0B40E4BBE
:1004D0001B680C46C3F30223C3F10705042D00D9A2
:1004E0000425191D072901D2002300E0DB1E012687
:1004F00006FA05F1491E214099409E40761E16409D
:100500003143F0BC00F0DABC0CED00E0064900F02D
:10051000070208684FF6FF03184040EA0220034A2A
:1005200010430860704700000CED00E00000FA0581
:100530002DE9F047DFF83C8105460E46D8F800006B
:1005400000F00700B0420CD2D8F8001021F00701EB
:100550003143C8F80010D8F8000000F00700B0429E
:1005600063D12878444C800705D56068A96820F0DD
:10057000F000084360602878C00745D0686801280B
:1005800016D02168022816D0890700294DDA616843
:1005900021F0030101436160FFF704FF696807462A
:1005A00041F2883001290FD00229814619D027E075
:1005B00021688903E9E78901E7E700BFFFF7F2FE59
:1005C000C11B494501D918E081466068C0F381002C
:1005D0000128F3D118E000BFFFF7E4FEC11B494535
:1005E0000BD86068C0F381000228F5D10CE000BF91
:1005F000FFF7D8FEC11B494502D90320BDE8F087AB
:10060000606810F00C0FF3D1D8F80010404601F0EC
:100610000701B1420BD9016821F0070131430160A4
:10062000006800F00700B04201D00120E6E728781A
:10063000400705D56068E96820F4E0600843606021
:100640002878000706D56068296920F4605040EAE0
:10065000C100606000F01CF86168084AC1F3031132
:10066000515CC840064908600020FFF7BBFE00202F
:10067000C4E700000020024000100240E41000081F
:10068000140000200148006870470000140000209A
:1006900012A185B00FC98DE80F0014A0144A00689C
:1006A00004905168134801F00C03042B10D0082B60
:1006B0000ED1C1F38343C9031DF803000AD5516865
:1006C00004AAC1F34041515C0A4A5043B0FBF1F027
:1006D00005B0704708494843FAE7000002030405E3
:1006E000060708090A0B0C0D0E0F1010010200007E
:1006F0000010024000127A0000093D002DE9F84F79
:1007000004460078B94DC00748D06868C0F381003E
:10071000012807D06868C0F38100022809D1686801
:10072000C00306D52868800338D5606800286FD0DC
:1007300034E06068B0F5803F0BD010B1B0F5A02F69
:1007400011D0286820F480302860286820F48020A8
:1007500002E0286840F480302860606888B1FFF7C4
:1007600021FE064609E0286840F480202860F0E772
:10077000FFF718FE801B642875D828688003F7D51A
:100780000CE0FFF70FFE064605E000BFFFF70AFE8C
:10079000801B6428F0D828688003F7D42078944E12
:1007A00080074FF001094FF000083BD5686810F052
:1007B0000C0F07D06868C0F38100022809D168686F
:1007C000C00306D42868800714D5206901281FD1EA
:1007D00010E02069B0B1C6F80090FFF7E3FD0746CE
:1007E00005E000BFFFF7DEFDC01B0228C4D8286863
:1007F0008007F7D52868616920F0F80040EAC10059
:1008000028600FE0C6F80080FFF7CCFD074606E041
:10081000E9E000BFFFF7C6FDC01B022823D8286807
:100820008007F7D4207800072CD57248A169D9B188
:10083000C0F80090FFF7B6FD074604E0FFF7B2FDF1
:10084000C01B02280FD8686A8007F7D56A484FF4A2
:10085000FA510068B0FBF1F0009000BF0098411E13
:100860000091FAD20EE080E0C0F80080FFF79AFD18
:10087000074604E0FFF796FDC01B022875D8686A9A
:100880008007F7D42078400760D5E8690027C000CA
:1008900008D4E86940F08050E861E869012700F079
:1008A0008050009055480168C90513D401688346FB
:1008B00041F480710160FFF775FD824606E000BFDC
:1008C000FFF770FDA0EB0A0064284ED8DBF80000AB
:1008D000C005F5D5E06801280AD008B1052813D075
:1008E000286A20F001002862286A20F0040002E053
:1008F000286A40F001002862E06841F2883B98B124
:10090000FFF750FD82460BE0286A40F004002862A1
:10091000EEE700BFFFF746FDA0EB0A0159455AD8A4
:10092000286A8007F6D50CE0FFF73CFD824605E01B
:10093000FFF738FDA0EB0A0159454CD8286A80071B
:10094000F6D41FB1E86920F08050E861E06988B30F
:100950006968C1F38101022945D00228C6F8608088
:1009600004D0FFF71FFD044638E034E0FFF71AFD1E
:10097000074604E0FFF716FDC01B02282BD82868A5
:100980008001F7D4206AB0F5803F05D16868A1687E
:1009900020F4003008436860D4E90801084369681E
:1009A00021F4741108436860C6F86090FFF7FAFC00
:1009B000044606E015E000BFFFF7F4FC001B022828
:1009C00009D828688001F7D50BE000BFFFF7EAFCE3
:1009D000001B022802D90320BDE8F88F2868800197
:1009E000F4D40020F8E70120F6E7000000100240F0
:1009F0000000424280044242140000200070004087
:100A00004FF0E0210428086903D020F004000861B9
:100A1000704740F00400FAE7704710B5401EB0F18F
:100A2000807F01D3012010BD4FF0E02460610F21D1
:100A3000601700F043FA0020A06107202061002029
:100A400010BD10B5FFF7E8FF10BD7047704730B517
:100A500090F83C20012A20D0012280F83C2002237B
:100A600080F83D3003685C6824F070045C600368C3
:100A70005C680D682C435C6003689C6824F080040B
:100A80009C6003689C6849680C439C6080F83D202A
:100A9000002180F83C10084630BD022030BD10B562
:100AA000040003D094F83D0010B107E0012010BD10
:100AB000002084F83C00204600F00CF8022084F866
:100AC0003D00211D206800F071FA012084F83D00EE
:100AD000002010BD08B500680B49884212D10B48B0
:100AE000C16941F00201C161C069002200F0020049
:100AF000009011461D20FFF7E9FCBDE808401D20CD
:100B0000FFF7D8BC08BD0000000400400010024000
:100B10000168CA6842F00102CA600068016841F0D9
:100B2000010101600020704770B5044690F83C0058
:100B3000012817D0012584F83C50022084F83D009C
:100B40002068826822F0770222F47F42826008687F
:100B5000502837D00DDC202859D005DC88B3102868
:100B600041D151E0022070BD302853D040283AD105
:100B70003FE060282ED070280BD0B0F5805F03D006
:100B8000B0F5005F2FD110E02068816821F00701E7
:100B900015E0CB68D1E90121206800F04DFA216809
:100BA000886840F0770088601DE0CB68D1E90121BA
:100BB000206800F041FA2068816841F4804181603A
:100BC00011E01EE0CA684968206800F047FA502129
:100BD000206806E0CA684968206800F050FA602181
:100BE000206800F033FA84F83D50002084F83C007F
:100BF00070BDCA684968206800F030FA402120685A
:100C0000EFE700212068ECE710212068E9E72021C8
:100C10002068E6E730212068E3E7704770B50446B6
:100C2000006801694FF00005C943890715D4C16800
:100C3000C943890711D4E91E01610120207720688A
:100C400080698007204602D0FFF7E7FF04E000F04C
:100C500098F8204600F096F8257720680169C94386
:100C6000490717D4C168C943490713D46FF0040179
:100C70000161022020772068806910F4407F2046BF
:100C800002D0FFF7CAFF04E000F07BF8204600F036
:100C900079F8257720680169C943090716D4C16826
:100CA000C943090712D46FF00801016104202077BD
:100CB0002068C0698007204602D0FFF7AEFF04E03D
:100CC00000F05FF8204600F05DF8257720680169A4
:100CD000C943C90617D4C168C943C90613D46FF004
:100CE00010010161082020772068C06910F4407F5E
:100CF000204602D0FFF791FF04E000F042F82046C2
:100D000000F040F8257720680169C943C90708D178
:100D1000C168C943C90704D1891E0161204600F09A
:100D200033F820680169C943090609D4C168C94379
:100D3000090605D46FF0800101612046FFF785FEAA
:100D400020680169C943490609D4C168C9434906F5
:100D500005D46FF040010161204600F027F82068BB
:100D60000169C94389060BD4C168C943890607D400
:100D70006FF0200101612046BDE87040FFF766BEBC
:100D800070BD70477047000010B5074900680968DA
:100D9000884207D10020FFF7F9F9BDE81040012093
:100DA000FFF7F4B910BD0000180000207047FEE7FF
:100DB00070B51F4886B0816941F010018161816979
:100DC00001F010010491816941F080018161816924
:100DD00001F080010491816941F004018161806921
:100DE000144E00F004004FF4C07504900022294610
:100DF0003046FFF7D1FA00247014CDE900046946AB
:100E00000D480294FFF7D0F90220CDE90240009589
:100E10000125694601953046FFF7C6F9CDE9005432
:100E2000694606480294FFF7BFF906B070BD00009E
:100E300000100240001C0140001001400008014069
:100E400010B5184886B01649016041F61F410024CC
:100E5000C0E9011444F61F61C0E903148461FFF77F
:100E60001EFE18B13F2110A000F01CF94FF4805075
:100E7000009069460B48FFF757FE18B145210AA0BC
:100E800000F010F9049404A906480594FFF7DFFD6B
:100E9000002803D04C2104A000F004F906B010BDD6
:100EA00000040040180000202E2E2F5372632F7470
:100EB000696D2E6300000000FEE770470907090E08
:100EC000002806DA00F00F0000F1E02080F8141D81
:100ED000704700F1E02080F80014704770477047B9
:100EE00010B5FFF765FABDE81040FFF7AABD30B5B1
:100EF0008FB001210804CDE90010002402940225DE
:100F00000491CDE907504FF4E01009906846FFF7CF
:100F1000F5FB00B1FEE70F20CDE90A054FF4806034
:100F2000CDE90C4002210AA80E94FFF701FB00B1A5
:100F3000FEE7FFF7A7FB4FF47A71B0FBF1F0FFF784
:100F40006CFD0420FFF75CFD00221146501EFFF7E8
:100F5000BDFA0FB030BD00000D48016841F001013D
:100F6000016041680B4A1140416001680A4A114022
:100F70000160016821F480210160416821F4FE01D3
:100F800041604FF41F0181600449C003086070474D
:100F9000001002400000FFF8FFFFF6FE08ED00E041
:100FA0000148FFF73BBE000018000020F0B50268C2
:100FB0001C4B1D4D1D4E1E4F1E4C4FF0804C984239
:100FC00009D0A04207D0604505D0A84203D0B04266
:100FD00001D0B84204D122F0700E4A6842EA0E02F3
:100FE000984209D0A04207D0604505D0A84203D05E
:100FF000B04201D0B84203D122F44075CA682A43F6
:1010000022F080054A692A4302608A68C2620A683F
:101010008262984201D0A04201D109690163012195
:101020004161F0BD002C0140000400400008004078
:10103000000C00400034014010B5846842EA0322ED
:1010400024F47F440A432243826010BD826822F068
:1010500070020A4342F007018160704710B5036ACD
:10106000046A24F001040462846924F0F00444EA70
:10107000021423F00A020A438461026210BD10B513
:10108000036A23F0100303628369046A23F4704344
:1010900043EA023224F0A00343EA011182610162B3
:1010A00010BDFEE7FEE702E008C8121F08C1002AD3
:1010B000FAD170477047002001E001C1121F002AD9
:1010C000FBD17047FFF77CF9FFF711FFFFF770FEC8
:1010D000FFF7B6FE0148FFF71BFDFEE718000020F2
:1010E0008000000100000000000000000102030475
:1010F000060708091411000800000020180000006D
:10110000A61000082C110008180000204004000060
:10111000B6100008001C0140001C01400100000046
:0C112000100000000000000000A24A04C3
:0400000508000131BD
:00000001FF
