:020000040800F2
:100000001804002045010008130B00087F0A0008AF
:10001000110B0008F1010008F90B000800000000B6
:10002000000000000000000000000000370B000886
:10003000F301000800000000350B0008390B000830
:100040005F0100085F0100085F0100085F01000810
:100050005F0100085F0100085F0100085F01000800
:100060005F0100085F0100085F0100085F010008F0
:100070005F0100085F0100085F0100085F010008E0
:100080005F0100085F0100085F0100085F010008D0
:100090005F0100085F0100085F0100085F010008C0
:1000A0005F0100085F0100085F0100085F010008B0
:1000B0005F0100085F0100085F0100085F010008A0
:1000C0005F0100085F0100085F0100085F01000890
:1000D0005F0100085F0100085F0100085F01000880
:1000E0005F0100085F0100085F0100085F01000870
:1000F0005F0100085F0100085F0100085F01000860
:100100005F0100085F0100085F0100085F0100084F
:100110005F0100085F0100085F0100085F0100083F
:100120005F0100085F0100085F0100085F0100082F
:10013000DFF80CD000F018F800480047190C000850
:10014000180400200648804706480047FEE7FEE7FF
:10015000FEE7FEE7FEE7FEE7FEE7FEE7FEE7FEE777
:10016000B10B000831010008064C074D06E0E068BD
:1001700040F0010394E8070098471034AC42F6D3EE
:10018000FFF7DAFF600C0008800C000810B50121B1
:10019000074800F023F9012806D04FF40051054824
:1001A00000F01CF908B1002010BD022010BD0000B5
:1001B00000080140001001400449054A31F81010C0
:1001C00052F82000012200F00EB900004C0C00088B
:1001D000000000200449054A31F8101052F82000B0
:1001E000002200F000B900004C0C000800000020C4
:1001F000FEE770472DE9F84FDFF8B8A100220AF1B9
:10020000040B144601274FF00F090BF1040E00BF39
:100210000B6807FA04F52B40AB4274D1DFF898C1A4
:100220004E68A6EB0C0866452BD00DDC032E34D0AF
:1002300005DC36B3012E19D0022E2FD11BE0112E72
:1002400016D0122E2AD119E0B8F5881F19D006DC75
:10025000B8F5803F15D0B8F5801F1FD111E0B8F573
:10026000001F0ED0B8F5041F18D10AE0CA6815E0C7
:10027000CA68121D12E0CA6808320FE0CA680C3260
:100280000CE08A682AB1012A4FF0080203D04561C8
:1002900004E0042202E0056100E00022FF2B01D807
:1002A000064601E000F104064FEA840501D9A5F1F4
:1002B0002005D6F800C009FA05F82CEA080C02FA65
:1002C00005F54CEA050CC6F800C04D68ED006AD58E
:1002D0003A4DAE6946F00106AE61AD6924F0030601
:1002E00005F001050095364D06EB050CDCF80850CD
:1002F000A6074FEA167809FA08F6B543314EB04220
:1003000002D100261AE04EE02F4EB04201D1012664
:1003100014E02E4EB04201D102260FE02C4EB04226
:1003200001D103260AE02B4EB04201D1042605E09C
:10033000294EB04201D1052600E0062606FA08F64D
:100340002E43CCF808604D68DAF80060ED0355469E
:1003500001D51E4300E09E432E604D68AD0305D5D8
:10036000DBF800601E43CBF8006004E0DBF80050CF
:100370009D43CBF800504D68DEF80060ED027546F5
:1003800001D51E4300E09E432E604D68AD0205D5A9
:10039000084D0C352E681E432E6004E0054E0C36C9
:1003A00035689D433560641C102CFFF431AFBDE807
:1003B000F88F0000000401400000111000100240FE
:1003C0000000014000080140000C01400010014005
:1003D0000014014000180140001C014080680840E2
:1003E00000D0012070470AB1016170470904FBE7A2
:1003F00001488068704700000800002002488168BA
:10040000027811448160704708000020074810B549
:10041000016841F010010160032000F091F8002014
:1004200000F006F800F024F8002010BD0020024083
:1004300070B50D4D04464FF47A712878B1FBF0F099
:100440000A490968B1FBF0F000F001FB48B9102C33
:1004500007D200222146501E00F052F800206C60A6
:1004600070BD012070BD00000800002014000020B5
:10047000214808B5816941F001018161816901F07C
:1004800001010091C16941F08051C161C06900F072
:1004900080500090032000F053F8002211466FF0C6
:1004A0000B0000F02DF8002211466FF00A0000F05A
:1004B00027F8002211466FF0090000F021F8002211
:1004C0001146501F00F01CF800221146101F00F0CA
:1004D00017F800221146901E00F012F80022114673
:1004E000501E00F00DF80548416821F0E06141F030
:1004F0008061416008BD0000001002400000014022
:10050000F0B40E4B1B680C46C3F30223C3F107057E
:10051000042D00D90425191D072901D2002300E06C
:10052000DB1E012606FA05F1491E214099409E4036
:10053000761E16403143F0BC00F0ECBA0CED00E042
:10054000064900F0070208684FF6FF03184040EA2A
:100550000220034A10430860704700000CED00E0E1
:100560000000FA052DE9F047DFF83C8105460E460C
:10057000D8F8000000F00700B0420CD2D8F8001004
:1005800021F007013143C8F80010D8F8000000F04E
:100590000700B04263D12878444C800705D56068D5
:1005A000A96820F0F000084360602878C00745D0B3
:1005B0006868012816D02168022816D0890700290A
:1005C0004DDA616821F0030101436160FFF710FF1C
:1005D0006968074641F2883001290FD00229814617
:1005E00019D027E021688903E9E78901E7E700BF1F
:1005F000FFF7FEFEC11B494501D918E0814660683E
:10060000C0F381000128F3D118E000BFFFF7F0FE2E
:10061000C11B49450BD86068C0F381000228F5D1A1
:100620000CE000BFFFF7E4FEC11B494502D90320DF
:10063000BDE8F087606810F00C0FF3D1D8F8001017
:10064000404601F00701B1420BD9016821F00701D2
:1006500031430160006800F00700B04201D0012082
:10066000E6E72878400705D56068E96820F4E0608F
:10067000084360602878000706D56068296920F47F
:10068000605040EAC100606000F01CF86168084AF0
:10069000C1F30311515CC840064908600020FFF710
:1006A000C7FE0020C4E70000002002400010024006
:1006B000500C00081400002001480068704700003A
:1006C0001400002012A185B00FC98DE80F0014A0FE
:1006D000144A006804905168134801F00C03042B7D
:1006E00010D0082B0ED1C1F38343C9031DF80300BA
:1006F0000AD5516804AAC1F34041515C0A4A5043EB
:10070000B0FBF1F005B0704708494843FAE7000034
:1007100002030405060708090A0B0C0D0E0F101042
:10072000010200000010024000127A0000093D00A2
:100730002DE9F84F04460078B94DC00748D06868E5
:10074000C0F38100012807D06868C0F38100022847
:1007500009D16868C00306D52868800338D5606869
:1007600000286FD034E06068B0F5803F0BD010B146
:10077000B0F5A02F11D0286820F4803028602868B8
:1007800020F4802002E0286840F48030286060680F
:1007900088B1FFF72DFE064609E0286840F4802066
:1007A0002860F0E7FFF724FE801B642875D82868CE
:1007B0008003F7D50CE0FFF71BFE064605E000BFFF
:1007C000FFF716FE801B6428F0D828688003F7D452
:1007D0002078944E80074FF001094FF000083BD578
:1007E000686810F00C0F07D06868C0F38100022819
:1007F00009D16868C00306D42868800714D5206929
:1008000001281FD110E02069B0B1C6F80090FFF7B1
:10081000EFFD074605E000BFFFF7EAFDC01B022819
:10082000C4D828688007F7D52868616920F0F800E7
:1008300040EAC10028600FE0C6F80080FFF7D8FD4D
:10084000074606E0E9E000BFFFF7D2FDC01B022823
:1008500023D828688007F7D4207800072CD5724861
:10086000A169D9B1C0F80090FFF7C2FD074604E0C6
:10087000FFF7BEFDC01B02280FD8686A8007F7D5B6
:100880006A484FF4FA510068B0FBF1F0009000BFE5
:100890000098411E0091FAD20EE080E0C0F800807E
:1008A000FFF7A6FD074604E0FFF7A2FDC01B0228E4
:1008B00075D8686A8007F7D42078400760D5E86962
:1008C0000027C00008D4E86940F08050E861E8697A
:1008D000012700F08050009055480168C90513D4E5
:1008E0000168834641F480710160FFF781FD824613
:1008F00006E000BFFFF77CFDA0EB0A0064284ED89D
:10090000DBF80000C005F5D5E06801280AD008B181
:10091000052813D0286A20F001002862286A20F0F8
:10092000040002E0286A40F001002862E06841F219
:10093000883B98B1FFF75CFD82460BE0286A40F0E7
:1009400004002862EEE700BFFFF752FDA0EB0A01AA
:1009500059455AD8286A8007F6D50CE0FFF748FDBC
:10096000824605E0FFF744FDA0EB0A0159454CD84B
:10097000286A8007F6D41FB1E86920F08050E8614A
:10098000E06988B36968C1F38101022945D0022872
:10099000C6F8608004D0FFF72BFD044638E034E051
:1009A000FFF726FD074604E0FFF722FDC01B0228E3
:1009B0002BD828688001F7D4206AB0F5803F05D194
:1009C0006868A16820F4003008436860D4E9080131
:1009D0000843696821F4741108436860C6F86090A0
:1009E000FFF706FD044606E015E000BFFFF700FD37
:1009F000001B022809D828688001F7D50BE000BF4A
:100A0000FFF7F6FC001B022802D90320BDE8F88F8F
:100A100028688001F4D40020F8E70120F6E7000000
:100A200000100240000042428004424214000020B4
:100A3000007000404FF0E0210428086903D020F046
:100A400004000861704740F00400FAE7704710B5F1
:100A5000401EB0F1807F01D3012010BD4FF0E02493
:100A600060610F21601700F055F80020A061072099
:100A70002061002010BD10B5FFF7E8FF10BDFEE7B4
:100A800070B51F4886B0816941F0100181618169AC
:100A900001F010010491816941F080018161816957
:100AA00001F080010491816941F004018161806954
:100AB000144E00F004004FF4C07504900122294642
:100AC0003046FFF790FC00247014CDE9000469461D
:100AD0000D480294FFF78EFB0220CDE902400095FD
:100AE0000125694601953046FFF784FBCDE90054A6
:100AF000694606480294FFF77DFB06B070BD000012
:100B000000100240001C014000100140000801409C
:100B1000FEE770470907090E002806DA00F00F000B
:100B200000F1E02080F8141D704700F1E02080F80B
:100B3000001470477047704710B5FFF75FFCBDE8C1
:100B40001040FFF798BF30B58FB001210804CDE900
:100B500000100024029402250491CDE907504FF4BF
:100B6000E01009906846FFF7E3FD00B1FEE70F20B3
:100B7000CDE90A054FF48060CDE90C4002210AA8B6
:100B80000E94FFF7EFFC00B1FEE7FFF795FD4FF481
:100B90007A71B0FBF1F0FFF75AFF0420FFF74AFF2C
:100BA00000221146501EFFF7ABFC0FB030BD000015
:100BB0000D48016841F00101016041680B4A114094
:100BC000416001680A4A11400160016821F48021F6
:100BD0000160416821F4FE0141604FF41F01816012
:100BE0000449C00308607047001002400000FFF88D
:100BF000FFFFF6FE08ED00E0FEE702E008C8121F66
:100C000008C1002AFAD170477047002001E001C1F5
:100C1000121F002AFBD17047FFF7F8FBFFF793FF85
:100C2000FFF72EFFFFF7B2FA012808D00228F9D10A
:100C30000020FFF7C1FA0120FFF7CCFAF2E700200D
:100C4000FFF7C8FA0120FFF7B7FAEBE780000001D1
:100C5000000000000000000001020304060708096C
:100C6000800C00080000002018000000FA0B0008AB
:100C7000980C000818000020000400000A0C00086E
:100C8000001C0140001C0140010000001000000099
:080C90000000000000A24A046C
:0400000508000131BD
:00000001FF
